:020000040800F2
:10400000FFFF012035AE0008118500081385000868
:104010006D860008B1860008F586000800000000E3
:10402000000000000000000000000000C96D000852
:1040300039870008000000005D6E00080D8500084B
:1040400079AE000879AE000879AE000879AE0008B4
:1040500079AE000879AE0008A3830008B383000896
:10406000C3830008D3830008E183000801E300084C
:1040700079AE000825E3000879AE000879AE0008A3
:104080003B87000879AE000879AE000879AE0008D9
:1040900079AE000879AE000879AE0008F98300080F
:1040A00079AE000879AE000879AE000879AE000854
:1040B00079AE000879AE000879AE0008F5E2000894
:1040C000E9E2000879AE000879AE000879AE000890
:1040D00079AE000879AE000879AE000815ED000849
:1040E0007184000879AE000879AE000879AE000846
:1040F00079AE0008F1EE000879AE000879AE00084C
:1041000079AE000879AE000879AE000879AE0008F3
:1041100079AE000879AE000879AE000821FF0008EA
:104120000131010879AE000879AE000879AE0008C7
:1041300079AE000879AE000879AE000879AE0008C3
:1041400079AE000879AE000879AE0008A9BB000876
:104150009530010879AE0008D1EB0008CDEB0008DE
:1041600019E300080DE3000879AE000879AE0008F5
:1041700079AE000879AE000879AE000879AE000883
:0841800079AE000879AE0008D9
:1041880081F0004102E000BF83F0004330B54FEA00
:1041980041044FEA430594EA050F08BF90EA020F6D
:1041A8001FBF54EA000C55EA020C7FEA645C7FEA00
:1041B800655C00F0E2804FEA5454D4EB5555B8BF23
:1041C8006D420CDD2C4480EA020281EA030382EA94
:1041D800000083EA010180EA020281EA0303362D26
:1041E80088BF30BD11F0004F4FEA01314FF4801CF9
:1041F8004CEA113102D0404261EB410113F0004F0B
:104208004FEA03334CEA133302D0524263EB4303C1
:1042180094EA050F00F0A780A4F10104D5F1200E5F
:104228000DDB02FA0EFC22FA05F2801841F10001BA
:1042380003FA0EF2801843FA05F359410EE0A5F18E
:1042480020050EF1200E012A03FA0EFC28BF4CF0BF
:10425800020C43FA05F3C01851EBE37101F0004575
:1042680007D54FF0000EDCF1000C7EEB00006EEB82
:104278000101B1F5801F1BD3B1F5001F0CD349080C
:104288005FEA30004FEA3C0C04F101044FEA445263
:1042980012F5800F80F09A80BCF1004F08BF5FEAEA
:1042A800500C50F1000041EB045141EA050130BDCA
:1042B8005FEA4C0C404141EB010111F4801FA4F16D
:1042C8000104E9D191F0000F04BF01460020B1FAC2
:1042D80081F308BF2033A3F10B03B3F120020CDAFA
:1042E8000C3208DD02F1140CC2F10C0201FA0CF0D8
:1042F80021FA02F10CE002F11402D8BFC2F1200C3D
:1043080001FA02F120FA0CFCDCBF41EA0C019040F2
:10431800E41AA2BF01EB0451294330BD6FEA04043B
:104328001F3C1CDA0C340EDC04F11404C4F1200226
:1043380020FA04F001FA02F340EA030021FA04F338
:1043480045EA030130BDC4F10C04C4F1200220FA8F
:1043580002F001FA04F340EA0300294630BD21FACD
:1043680004F0294630BD94F0000F83F4801306BF93
:1043780081F480110134013D4EE77FEA645C18BF87
:104388007FEA655C29D094EA050F08BF90EA020F1E
:1043980005D054EA000C04BF1946104630BD91EA16
:1043A800030F1EBF0021002030BD5FEA545C05D119
:1043B8004000494128BF41F0004130BD14F5800458
:1043C8003CBF01F5801130BD01F0004545F0FE41CC
:1043D80041F470014FF0000030BD7FEA645C1ABF01
:1043E800194610467FEA655C1CBF0B46024650EA38
:1043F800013406BF52EA033591EA030F41F4002164
:1044080030BD00BF90F0000F04BF0021704730B5E9
:104418004FF4806404F132044FF000054FF00001BE
:1044280050E700BF90F0000F04BF0021704730B57F
:104438004FF4806404F1320410F0004548BF404254
:104448004FF000013EE700BF42004FEAE2014FEAA9
:1044580031014FEA02701FBF12F07F4393F07F4F84
:1044680081F06051704792F0000F14BF93F07F4FB6
:10447800704730B54FF4607401F0004521F00041F9
:1044880020E700BF50EA010208BF704730B54FF07F
:1044980000050AE050EA010208BF704730B511F084
:1044A800004502D5404261EB41014FF4806404F1BC
:1044B80032045FEA915C3FF4DCAE4FF003025FEA3E
:1044C800DC0C18BF03325FEADC0C18BF033202EBC6
:1044D800DC02C2F1200300FA03FC20FA02F001FA20
:1044E80003FE40EA0E0021FA02F11444C1E600BFBF
:1044F80070B54FF0FF0C4CF4E06C1CEA11541DBF72
:104508001CEA135594EA0C0F95EA0C0F00F0DEF83C
:104518002C4481EA030621EA4C5123EA4C5350EA21
:10452800013518BF52EA033541F4801143F4801372
:1045380038D0A0FB02CE4FF00005E1FB02E506F003
:104548000042E0FB03E54FF00006E1FB03569CF058
:10455800000F18BF4EF0010EA4F1FF04B6F5007F5E
:1045680064F5407404D25FEA4E0E6D4146EB0606D0
:1045780042EAC62141EA55514FEAC52040EA5E5059
:104588004FEACE2EB4F1FD0C88BFBCF5E06F1ED803
:10459800BEF1004F08BF5FEA500E50F1000041EB3A
:1045A800045170BD06F0004646EA010140EA0200E7
:1045B80081EA0301B4EB5C04C2BFD4EB0C0541EA09
:1045C800045170BD41F480114FF0000E013C00F31E
:1045D800AB8014F1360FDEBF002001F0004170BD42
:1045E800C4F10004203C35DA0C341BDC04F114045B
:1045F800C4F1200500FA05F320FA04F001FA05F2E7
:1046080040EA020001F0004221F0004110EBD370B3
:1046180021FA04F642EB06015EEA430E08BF20EADF
:10462800D37070BDC4F10C04C4F1200500FA04F382
:1046380020FA05F001FA04F240EA020001F0004114
:1046480010EBD37041F100015EEA430E08BF20EA87
:10465800D37070BDC4F1200500FA05F24EEA020ECF
:1046680020FA04F301FA05F243EA020321FA04F0FE
:1046780001F0004121FA04F220EA020000EBD370B5
:104688005EEA430E08BF20EAD37070BD94F0000FB5
:104698000FD101F00046400041EB010111F4801FE9
:1046A80008BF013CF7D041EA060195F0000F18BF9A
:1046B800704703F00046520043EB030313F4801FD6
:1046C80008BF013DF7D043EA0603704794EA0C0F90
:1046D8000CEA135518BF95EA0C0F0CD050EA4106A6
:1046E80018BF52EA4306D1D181EA030101F0004123
:1046F8004FF0000070BD50EA410606BF104619464B
:1047080052EA430619D094EA0C0F02D150EA013656
:1047180013D195EA0C0F05D152EA03361CBF104697
:1047280019460AD181EA030101F0004141F0FE4136
:1047380041F470014FF0000070BD41F0FE4141F4BA
:10474800780170BD70B54FF0FF0C4CF4E06C1CEABA
:1047580011541DBF1CEA135594EA0C0F95EA0C0F6F
:1047680000F0A7F8A4EB050481EA030E52EA03352A
:104778004FEA013100F088804FEA03334FF080554B
:1047880045EA131343EA12634FEA022245EA111578
:1047980045EA10654FEA00260EF000419D4208BF29
:1047A800964244F1FD0404F5407402D25B084FEAD6
:1047B8003202B61A65EB03055B084FEA32024FF482
:1047C80080104FF4002CB6EB020E75EB030E22BFDF
:1047D800B61A754640EA0C005B084FEA3202B6EB9F
:1047E800020E75EB030E22BFB61A754640EA5C004E
:1047F8005B084FEA3202B6EB020E75EB030E22BFDE
:10480800B61A754640EA9C005B084FEA3202B6EBDE
:10481800020E75EB030E22BFB61A754640EADC009D
:1048280055EA060E18D04FEA051545EA16754FEAFF
:1048380006164FEAC30343EA52734FEAC2025FEA1D
:104848001C1CC0D111F4801F0BD141EA00014FF0AC
:1048580000004FF0004CB6E711F4801F04BF01437D
:104868000020B4F1FD0C88BFBCF5E06F3FF6AFAE99
:10487800B5EB030C04BFB6EB020C5FEA500C50F129
:10488800000041EB045170BD0EF0004E4EEA1131AC
:1048980014EB5C04C2BFD4EB0C0541EA045170BDB3
:1048A80041F480114FF0000E013C90E645EA060EF7
:1048B8008DE60CEA135594EA0C0F08BF95EA0C0F25
:1048C8003FF43BAF94EA0C0F0AD150EA01347FF46D
:1048D80034AF95EA0C0F7FF425AF104619462CE744
:1048E80095EA0C0F06D152EA03353FF4FDAE1046A7
:1048F800194622E750EA410618BF52EA43067FF4F8
:10490800C5AE50EA41047FF40DAF52EA43057FF487
:10491800EBAE12E74FF0FF3C06E000BF4FF0010C92
:1049280002E000BF4FF0010C4DF804CD4FEA410CF6
:104938007FEA6C5C4FEA430C18BF7FEA6C5C1BD0C3
:1049480001B050EA410C0CBF52EA430C91EA030F44
:1049580002BF90EA020F0020704710F1000F91EAA1
:10496800030F58BF994208BF90422CBFD8176FEA6F
:10497800E37040F0010070474FEA410C7FEA6C5C3D
:1049880002D150EA013C07D14FEA430C7FEA6C5C44
:10499800D6D152EA033CD3D05DF8040B704700BF70
:1049A8008446104662468C461946634600E000BFBE
:1049B80001B5FFF7B7FF002848BF10F1000F01BD90
:1049C8004DF808EDFFF7F4FF0CBF012000205DF85B
:1049D80008FB00BF4DF808EDFFF7EAFF34BF0120E0
:1049E80000205DF808FB00BF4DF808EDFFF7E0FF79
:1049F80094BF012000205DF808FB00BF4DF808EDCA
:104A0800FFF7CEFF94BF012000205DF808FB00BF30
:104A18004DF808EDFFF7C4FF34BF012000205DF812
:104A280008FB00BF4FEA4102B2F1E04324BFB3F5EF
:104A3800001CDCF1FE5C0DD901F0004C4FEAC0020D
:104A48004CEA5070B2F1004F40EB830008BF20F0F1
:104A58000100704711F0804F21D113F13872BCBFAB
:104A680001F00040704741F480114FEA5252C2F100
:104A78001802C2F1200C10FA0CF320FA02F018BF49
:104A880040F001004FEAC1234FEAD32303FA0CFC9C
:104A980040EA0C0023FA02F34FEA4303CCE77FEA2B
:104AA800625307D150EA01331EBF4FF0FE4040F475
:104AB8004000704701F0004040F0FE4040F4000024
:104AC800704700BF80F0004002E000BF81F0004165
:104AD80042001FBF5FEA410392EA030F7FEA226C9C
:104AE8007FEA236C6AD04FEA1262D2EB1363C1BF2C
:104AF800D218414048404140B8BF5B42192B88BF9B
:104B0800704710F0004F40F4000020F07F4018BFBD
:104B1800404211F0004F41F4000121F07F4118BFDD
:104B2800494292EA030F3FD0A2F1010241FA03FC85
:104B380010EB0C00C3F1200301FA03F100F000436D
:104B480002D5494260EB4000B0F5000F13D3B0F135
:104B5800807F06D340084FEA310102F10102FE2AA4
:104B680051D2B1F1004F40EBC25008BF20F0010014
:104B780040EA03007047490040EB000010F4000FC2
:104B8800A2F10102EDD1B0FA80FCACF1080CB2EB55
:104B98000C0200FA0CF0AABF00EBC25052421843B4
:104BA800BCBFD0401843704792F0000F81F4000159
:104BB80006BF80F400000132013BB5E74FEA41032C
:104BC8007FEA226C18BF7FEA236C21D092EA030F98
:104BD80004D092F0000F08BF0846704790EA010F12
:104BE8001CBF0020704712F07F4F04D1400028BF3F
:104BF80040F00040704712F100723CBF00F5000021
:104C0800704700F0004343F0FE4040F40000704756
:104C18007FEA226216BF08467FEA23630146420202
:104C280006BF5FEA412390EA010F40F48000704715
:104C38004FF0000304E000BF10F0004348BF4042BB
:104C48005FEA000C08BF704743F0964301464FF0F7
:104C580000001CE050EA010208BF70474FF0000353
:104C68000AE000BF50EA010208BF704711F0004394
:104C780002D5404261EB41015FEA010C02BF844664
:104C88000146002043F0B64308BFA3F18053A3F5C3
:104C98000003BCFA8CF2083AA3EBC25310DB01FA0A
:104CA80002FC634400FA02FCC2F12002BCF1004F8E
:104CB80020FA02F243EB020008BF20F0010070471F
:104CC80002F1200201FA02FCC2F1200250EA4C0073
:104CD80021FA02F243EB020008BF20EADC707047B9
:104CE80073B96AB9002908BF0028BCBF00204FF07B
:104CF8000041C4BF6FF000414FF0FF3000F03CB8F6
:104D080082B0EC462DE9005000F006F8DDF804E02A
:104D180002B00CBC704700BF2DE9F041069C154657
:104D280006460F46984600F029F805FB01F300FBFC
:104D38000838A5FB0023B21A434467EB0303C4E910
:104D48000023BDE8F08100BF2DE9F041069C9046A4
:104D580006460F461D4600F05FF900FB05F5A0FB6F
:104D6800082308FB0155B21A2B4467EB0303C4E977
:104D78000023BDE8F08100BF704700BF00292DE97E
:104D8800F043C0F2A6800026002BC0F29C80884623
:104D980094469E46154604460F46002B3DD18A424E
:104DA80059D9B2FA82F33BB1C3F120029F4020FAED
:104DB80002F29D4017439C40290C220CB7FBF1FEE0
:104DC800A8B201FB1E7742EA074700FB0EF3BB427D
:104DD8000AD97F190EF1FF3280F00581BB4240F2FB
:104DE8000281AEF1020E2F44FF1AA4B2B7FBF1F311
:104DF80001FB137744EA074700FB03F0B84208D9E0
:104E08007F1903F1FF3280F0F080B84240F2ED8064
:104E1800023B43EA0E43002203E08B420FD90022F3
:104E28001346341C18BF012460424FF0000565EB9F
:104E380045015840514000196941BDE8F083B3FA73
:104E480083F2002A40F086808B4202D3844500F228
:104E5800DB800123E5E712B90123B3FBF2F5B5FACC
:104E680085F000283BD1781B4FEA154E1FFA85FCC8
:104E78000122B0FBFEF8210C0EFB180741EA074798
:104E88000CFB08F3BB4207D97F1908F1FF3102D2A6
:104E9800BB4200F2BD808846FF1AA4B2B7FBFEF3FE
:104EA8000EFB137744EA07470CFB03FCBC4507D904
:104EB8007F1903F1FF3102D2BC4500F2A7800B46EF
:104EC80043EA0843ADE752426FEA060663EB430341
:104ED8005DE7404261EB41014FF0FF3654E7C0F116
:104EE800200224FA02F107FA00F385404FEA154E32
:104EF800D7401943B7FBFEF20B0C0EFB12771FFAD3
:104F080085FC43EA07430CFB02F79F4204FA00F4CE
:104F180007D95B1902F1FF3074D29F4272D9023A65
:104F28002B44DF1B89B2B7FBFEF80EFB187341EA6E
:104F380003430CFB08F79F4208D95B1908F1FF31BE
:104F48005CD29F425AD9A8F102082B44D81B48EAE0
:104F580002428EE7C2F120032CFA03F10EFA02FE98
:104F680020FA03F741EA0E0E08FA02F028FA03F1D4
:104F78004FEA1E453843B1FBF5F8030C05FB181141
:104F88001FFA8EF743EA014107FB08F38B420CFA3C
:104F980002FC09D911EB0E0108F1FF3930D28B421E
:104FA8002ED9A8F102087144C91A80B2B1FBF5F3F1
:104FB80005FB131140EA014107FB03F78F4208D9AB
:104FC80011EB0E0103F1FF3016D28F4214D9023BC8
:104FD800714443EA0843C91BA3FB0C89494509D31B
:104FE80005D000221DE79646FEE6134611E79440D9
:104FF8004445F6D2013BF4E70346EAE78846A5E7CD
:10500800C846D1E702468CE713460AE7023B57E752
:10501800A8F102082F443FE72DE9F041002B44D1C5
:105028008A42154604464FD9B2FA82F70E464FB166
:10503800C7F12003B94020FA03F602FA07F50E4338
:1050480000FA07F44FEA154E230CB6FBFEF0AFB298
:105058000EFB106143EA014307FB00F1994209D9AD
:105068005B1900F1FF3280F0EC80994240F2E98050
:1050780002382B445A1AA4B2B2FBFEF30EFB1322D9
:1050880044EA024207FB03F7974208D9521903F191
:10509800FF3180F0D880974240F2D580023B43EA46
:1050A800004000263146BDE8F0818B4247D8B3FA6C
:1050B80083F6002E48D18B4202D3824200F2CD8083
:1050C80001203146BDE8F08112B90125B5FBF2F5A2
:1050D800B5FA85F8B8F1000F77D14A1B4FEA154E9B
:1050E800AFB20126B2FBFEF0230C0EFB102143EAFF
:1050F800014107FB00F38B4207D9491900F1FF3240
:1051080002D28B4200F2BA801046C91AA4B2B1FB8F
:10511800FEF30EFB131144EA014407FB03F7A74211
:1051280008D9641903F1FF3280F08F80A74240F25A
:105138008C80023B43EA00403146BDE8F0810026FE
:1051480030463146BDE8F081C6F1200422FA04F564
:10515800B3402B4320FA04FC01FA06F721FA04F5C0
:105168004FEA134E4CEA0707B5FBFEF8390C0EFB65
:1051780018551FFA83FC41EA05450CFB08F1A942C2
:1051880002FA06F204D9ED1808F1FF3467D3A046F5
:105198006D1ABFB2B5FBFEF40EFB145547EA054184
:1051A8000CFB04FC8C4504D9C91804F1FF355CD309
:1051B8002C4644EA0844CCEB0101A4FB02239942A3
:1051C80048D344D0204600266CE7C8F1200401FAF1
:1051D80008F305FA08F520FA04F7E1404FEA154EFE
:1051E8001F43B1FBFEF63A0C0EFB16111FFA85FCA5
:1051F80042EA01430CFB06F29A4200FA08F407D986
:105208005B1906F1FF3137D29A4235D9023E2B4459
:105218009B1ABFB2B3FBFEF00EFB103347EA034301
:105228000CFB00F1994207D95B1900F1FF3221D23A
:1052380099421FD902382B445A1A40EA0646674653
:1052480050E7104616E70B4629E7134672E7B040C9
:105258009042B7D2601E002624E7304622E7A942D2
:1052680095D9A8F102081D4492E78C45A0D9023CC3
:1052780019449EE71046DFE70E46C9E7023829447D
:1052880043E700BF10F8012B11F8013B012A28BFA2
:105298009A42F7D0D01A704700F1080343604FF0E4
:1052A800FF32C360036100238260036070470023FC
:1052B8000361704743684B609A688A609A685160D6
:1052C8009960086103680133036070470A68531CDA
:1052D80030B501D1036907E000F108035C6825686F
:1052E800954201D82346F9E75A684A6091608B6075
:1052F8005960086103680133036030BD4268816802
:10530800036991608268416851605A68824204BFAB
:1053180082685A6000220261186801381860704774
:105328002DE9F0410C68002C45D04B685C684C6056
:1053380001F10807BC4204BF7B684B604B68D3F897
:105348000CC000F11C0300204C6864684C60BC422F
:1053580004BFCC684C604C68E46843F81C4C04F10A
:10536800340543F8185C256C43F8145C03F8102CDA
:10537800E56A43F80C5C032A04D1A56A15B1022535
:1053880003F8105CA56C43F8085C656D43F8045C91
:10539800D4F830E07646CEEB060516F8018BB8F166
:1053A800A50FF8D0AD08644523F8205B00F1010093
:1053B800CAD1BDE8F0812046BDE8F081064A1368ED
:1053C8001968064B11B94FF0FF3203E01268D26832
:1053D800D26852681A607047F8090020580A0020FD
:1053E80010B50E4B1A6850600D4A12689042044678
:1053F80007D20C4A10681968BDE810400431FFF75D
:1054080065BF094A106819680431FFF75FFF074B49
:105418001A68944238BF1C6010BD00BF080A0020FB
:1054280064090020600A0020F8090020580A0020BA
:105438002DE9F84F0A9E0C9C0F4615469A46814660
:1054480028B96848684940F22D2205F017FB052E57
:1054580005D96648644940F22E2205F00FFB3CB995
:10546800A80001F083FB8346002800F0B68000E026
:10547800A346602001F07AFB044688B1AD002A46B5
:10548800C0F830B0A521584613F0D5FE236B043D73
:105498001D4425F007057B1E04F13302093705E09A
:1054A800584601F001FC98E0BB4206D013F8011FF2
:1054B80002F8011F19780029F6D1052E4FF0000BCC
:1054C800B04604F1040728BF4FF00508384684F8B1
:1054D8003DB0C4F82C80C4F84880C4F84CB0FFF73D
:1054E800E6FE04F11800FFF7E2FEC8F10603A36127
:1054F800C4F858B024616462C4F850B0C4F854B019
:1055080084F85CB028464946524601F047FC0B9B9C
:10551800206003B11C6001F063FC354A354D136807
:10552800DFF8F890013313602B683BBB2C601268DE
:10553800012A2BD1984609EB080008F11408FFF757
:10554800ABFEB8F1780FF6D1DFF8D4A0DFF8D4803D
:105558005046FFF7A1FE4046FFF79EFE2648FFF79C
:105568009BFE2648FFF798FE2548FFF795FE254B3A
:10557800C3F800A0244BC3F8008007E0234B1B6846
:1055880023B92B68DB6AB34298BF2C60204A2149B3
:10559800136801331360E26A23640B68012404FA78
:1055A80002F0034314200B6000FB02903946FFF71A
:1055B80081FE01F037FC154B1B685BB12B68DB6A79
:1055C800B34207D2144B4FF080521A60BFF34F8F8B
:1055D800BFF36F8F2046BDE8F88F4FF0FF30BDE86E
:1055E800F88F00BF41940108289401084C940108E1
:1055F800240A0020080A002048090020E4090020A5
:10560800100A0020F8090020600A0020000A002083
:10561800500A00205C09002004ED00E06809002021
:10562800280A00203C0A00201FB50024194B0193CA
:105638000094029403941848184996222346FFF7C9
:10564800F7FE01281AD101F0B9F8012816D14FF058
:105658005F0383F31188BFF36F8FBFF34F8F104B36
:105668004FF0FF321A600F4B18600F4B1C600AF0A6
:10567800F3FB04B0BDE8104001F040BC40B90B4852
:105688000B4940F2516204B0BDE8104005F0F6B98C
:1056980004B010BD540A0020295A000800950108DA
:1056A800580A0020000A0020640900200595010816
:1056B80028940108024A136801331360704700BF39
:1056C8005C0A0020014B1868704700BF640900207D
:1056D8002DE9F047394B3A4A19681160394A12687E
:1056E800002A3AD11A6801321A601F68A7B9364CE5
:1056F80023681B682BB13548354940F2AA7205F07A
:10570800BDF9344B2268196821601A60324A13685F
:1057180001331360FFF752FE304EDFF8D080336854
:10572800DFF8CC909F424FF000040BD3264B1A6849
:105738001268002A37D01B68DB68DD686B689F42F7
:1057480011D23360D9F80030DA6A1423534358F879
:105758000330022B28BF012428E0214A13680133B3
:105768001360002422E005F1040A5046FFF7C6FD45
:10577800AB6A1BB105F11800FFF7C0FD1948E96ACB
:10578800026801238B4013430360142000FB01804F
:105798005146FFF78FFDD9F80030EA6ADB6A9A4272
:1057A80028BF0124C2E74FF0FF33CAE70E4B1B683E
:1057B800002B18BF01242046BDE8F08764090020AB
:1057C800080000E05C0A0020F8090020299501087B
:1057D80028940108600A0020640A0020580A002062
:1057E8000C0A00205C090020FC0900206809002040
:1057F800080A002070B52E4C23682BB92D482E4975
:1058080040F28E6205F03AF901F0EAFA2368013BAA
:10581800236023680BB1002445E0284B1B68002B4C
:10582800F9D0274B1A680AB3DB68DC68261D04F137
:105838001800FFF763FD3046FFF760FD2149E26A73
:105848000B68012505FA02F003430B601E4B142078
:1058580000FB02303146FFF72DFD1C4BE26A1B6846
:10586800DB6A9A4224BF1A4B1D60DAE7194C236899
:10587800ABB9174B1C68012CCDD1174B4FF0805298
:105888001A60BFF34F8FBFF36F8F0CE0FFF720FF55
:1058980010B10F4B01221A602368013B2360236873
:1058A800002BF3D1E5E701F0BDFA204670BD00BF3B
:1058B8005C0A00205495010828940108240A002055
:1058C800480900205C09002068090020080A002017
:1058D800FC0900200C0A002004ED00E038B50C4655
:1058E800054628B92548264940F23F3205F0C6F852
:1058F8002CB9244822494FF4507205F0BFF8224BC6
:105908001B682BB121481E4940F2413205F0B6F818
:10591800FFF7D0FE1E4B2A681B689342144402D23C
:10592800944207D201E0944206D39C4294BF0023DC
:10593800012302E0002300E001232C608BB1154D08
:1059480028680430FFF7DAFC40B92B681249D86A96
:105958000A680123834022EA03030B602046FFF70D
:105968003FFDFFF747FF38B90C4B4FF080521A60E4
:10597800BFF34F8FBFF36F8F38BD00BF6995010824
:10598800289401087C9501085C0A0020AF9401085E
:1059980064090020080A00205C09002004ED00E0EA
:1059A80038B5044640B9174B4FF080521A60BFF320
:1059B8004F8FBFF36F8F38BD134B1B682BB1134844
:1059C800134940F2A33205F059F8FFF773FE114D61
:1059D800114B1B68286804301C44FFF78FFC40B942
:1059E8002B680E49D86A0A680123834022EA030318
:1059F8000B602046FFF7F4FCFFF7FCFE0028D2D02E
:105A080038BD00BF04ED00E05C0A0020AF94010837
:105A180028940108080A0020640900205C09002075
:105A280008B5124C2368F3B1114DFFF743FE2E68F9
:105A3800FFF7E0FE002EF4D001F0D2F9EB68DD6844
:105A4800281DFFF75BFC0B4A1368013B13602368B2
:105A5800013B236001F0E6F9286B01F025F928469F
:105A680001F022F9DDE703F00FFCDAE76009002016
:105A7800E4090020240A0020F8B50C46054617461C
:105A8800FFF718FE1C4B1B689C4230D30026344697
:105A98001A4905EB441031440122FFF741FC143E3A
:105AA80016F1780F0444F3D1154B05EB441019682F
:105AB8000222FFF735FC134B0444196805EB441028
:105AC8000222FFF72DFC044405EB44100E49042282
:105AD800FFF726FC044405EB44100C490322FFF7AA
:105AE8001FFC044427B10AF0FBF9386000E00024E9
:105AF800FFF780FE2046F8BD240A0020CC090020CC
:105B0800F8090020600A0020E4090020100A00209B
:105B180038B50D46044608B9044B1C6801F060F915
:105B28002565BDE8384001F07DB900BF080A0020AE
:105B380070B5204B1A68204B0AB1012237E01A6071
:105B48000AF0CEF91D4A1E4E14681E4B1060A04282
:105B580088BF3168186081BF4B6D1B1B1B184B65D4
:105B6800194B1C68B4FA84F4E4B2C4F11F0414237A
:105B7800164D6343EB582BB91548164940F6C80231
:105B880004F07CFF142202FB04F3E9180833486888
:105B9800406848602B44984204BF43684B6002FB4E
:105BA80004546368DB68336033685A6B0A4B1A60C5
:105BB80070BD00BF5C0A0020FC090020040A002018
:105BC800080A0020E00900205C090020680900207C
:105BD8009495010828940108040000E070B50D466A
:105BE800064628B91448154940F6DA0204F046FF7B
:105BF800134C216830461831FFF768FB20680430E1
:105C0800FFF77CFB40B923680E49D86A0A6801236C
:105C1800834022EA03030B606B1C06D121680A4803
:105C28000431BDE87040FFF745BB084B18682844AD
:105C3800BDE87040FFF7D4BBDB9501082894010844
:105C4800080A00205C090020100A002064090020CE
:105C5800F8B50D461646074628B91548154940F6C1
:105C6800591204F00BFF144C216838461831FFF71D
:105C780021FB20680430FFF741FB40B923680F4936
:105C8800D86A0A680123834022EA03030B60012EC5
:105C980006D121680A480431BDE8F840FFF70ABB7D
:105CA800084B18682844BDE8F840FFF799BB00BFC7
:105CB800DB95010828940108080A00205C090020E7
:105CC800100A00206409002038B5C368DC682CB9C4
:105CD8001648174940F6B41204F0D0FE04F118052E
:105CE8002846FFF70BFB134B1B687BB9251D28467D
:105CF800FFF704FB1048E16A026801238B40134355
:105D080003600E4B142000FB013000E00C482946CC
:105D1800FFF7D0FA0B4BE26A1B68DB6A9A4283BF33
:105D2800094B01201860002038BD00BF019601080A
:105D3800289401085C0A00205C09002068090020FA
:105D480048090020080A0020FC09002010B5044674
:105D580028B90648064940F6142204F08FFE054B80
:105D68001B682360044B1B68636010BD30960108F4
:105D780028940108640A00206409002038B50D46FB
:105D8800044628B91548164940F61E2204F076FE46
:105D98002DB91448124940F61F2204F06FFE01F095
:105DA8001FF8114B19682B685A1C10D00F4A10683D
:105DB80022689042626801D091420AD2881A9842B9
:105DC80007D2521A13442B602046FFF7BFFF002466
:105DD80000E0012401F026F8204638BD309601087D
:105DE800289401083A96010864090020640A0020F2
:105DF800014B01221A607047FC090020054B1B6803
:105E080033B1054B1B68002B0CBF022000207047E4
:105E180001207047000A00205C0A00202DE9F041AB
:105E28000446002838D01D4DC36A2A68D26A9342B6
:105E380032D282691A4E002AA1BF2A68D26AC2F1F8
:105E4800060282611427426907FB03639A4220D144
:105E580000F104084046FFF751FA124B48B9E06ACE
:105E68004743F2592AB919680122824021EA0202FD
:105E78001A602A68D26AE26201201C6890402043B6
:105E88001860142000FB02604146BDE8F041FFF7AE
:105E980011BA2B68DB6AC362BDE8F081080A0020EA
:105EA800680900205C09002070B5044608B9002084
:105EB80070BD204B1B68984205D01F481F4940F60B
:105EC800A75204F0DBFDE36C2BB91D481B4940F6D3
:105ED800A95204F0D3FDE36CE16AA26C013B914244
:105EE800E364E4D0002BE2D1251D2846FFF706FA2B
:105EF8001449154A50B9E66A14237343CB582BB991
:105F080010680123B34020EA03031360A36CE36223
:105F1800C3F10600A0611068012404FA03F63043B7
:105F28001060142000FB03102946FFF7C3F9204630
:105F380070BD00BF080A002048960108289401088F
:105F48005E960108680900205C090020044B1A6865
:105F58001AB11968CA6C0132CA641868704700BF60
:105F6800080A002038B51546026C044632B905689F
:105F780045BB4068FFF798FF656024E06DB980680D
:105F880013F04EF9A268236C13446268A36093422D
:105F980018D32368A360284615E0C06813F040F9B9
:105FA800236CE26821685B421A448A42E2603EBF81
:105FB80062689B18E360022D04D1A36B13B1A36B35
:105FC800013BA3630020A36B0133A36338BD10B565
:105FD800026C03466AB1C4681444C46040688442D1
:105FE80024BF1868D860BDE810400846D96813F087
:105FF80017B910BD10B5044600F0F2FEA36C002BD3
:106008000CDD636A53B104F12400FFF75DFE08B1AB
:10601800FFF7EEFEA36C013BA364EFE74FF0FF33FD
:10602800A36400F0FFFE00F0DBFE636C002B0CDDC8
:10603800236953B104F11000FFF746FE08B1FFF7DA
:10604800D7FE636C013B6364EFE74FF0FF33636493
:10605800BDE8104000F0E6BE38B50D46044628B944
:106068001A481B494FF4847204F008FD00F0B8FE8A
:10607800216CE36B2268A2604B43D0185B1A13446F
:106088006060E36000204FF0FF33A0636364A364A3
:1060980085B92369B3B104F11000FFF715FE012893
:1060A80010D10C4B4FF080521A60BFF34F8FBFF3E3
:1060B8006F8F07E004F11000FFF7EEF804F12400F9
:1060C800FFF7EAF800F0AEFE012038BDBF960108E0
:1060D800C796010804ED00E0F8B50D4617460646D8
:1060E80028B91448144940F2431204F0C7FC1DB102
:1060F80005FB06F0013000E02846543000F036FD7C
:10610800044670B10DB9206002E000F15403036049
:10611800E663256420460121FFF79EFF84F850704E
:1061280005E00648044940F27F1204F0A7FC204627
:10613800F8BD00BFE0960108C7960108059501085B
:106148002DE9FF410F4601921E46044628B95948D9
:10615800594940F2672204F091FC1FB9236C002BC7
:1061680040F09080022E03D1E36B012B40F0918028
:10617800FFF744FE18B9019B002B40F091804FF0C7
:10618800000800F02DFEA26BE36B9A4201D3022EA9
:106198001FD1E36C494A43F48073136020463946A3
:1061A8003246FFF7DFFE636A33B104F12400FFF7DC
:1061B8008BFD012809D100E038B1414B4FF08052E6
:1061C8001A60BFF34F8FBFF36F8F00F02BFE0120D3
:1061D8006DE0019D15B900F025FE4CE0B8F1000F07
:1061E80002D102A8FFF7B2FD00F01CFEFFF762FA29
:1061F80000F0F6FD636C013304BF00236364A36CF5
:10620800013304BF0023A36400F00CFE02A801A917
:10621800FFF7B4FD50BB00F0E3FDD4F83880E56B20
:1062280000F000FEA8451BD1E36C244A43F48063C8
:10623800136004F110000199FFF7D0FC2046FFF726
:10624800D9FEFFF7D7FA10B14FF0010899E71C4BB8
:106258004FF080521A60BFF34F8FBFF36F8FF3E791
:106268002046FFF7C7FEFFF7C5FAEDE72046FFF720
:10627800C1FEFFF7BFFAE36C104A43F400731360E2
:10628800002014E00F480C494FF41A7204F0F6FB92
:1062980068E70D48084940F2692204F0EFFB67E718
:1062A8000A4805494FF41B7204F0E8FB67E704B09D
:1062B800BDE8F081BF960108C79601080C0000E010
:1062C80004ED00E002970108529701089997010828
:1062D80070B50646542000F049FC0446D8B10123A5
:1062E8000025C3634FF0FF33856345604364056051
:1062F80083648560C560056480F850601030FEF7DF
:10630800CBFF04F12400FEF7C7FF204629462A46A2
:106318002B46FFF715FF204670BD00002DE9F04120
:106328000E4690461D46044628B92748274940F29C
:10633800244204F0A3FB0EB9236C9BBB022D02D1AF
:10634800E36B012B35D100F04BFEEFF311874FF0D3
:106358005F0383F31188BFF36F8FBFF34F8FA26B77
:10636800E36B9A4201D3022D1AD1204631462A46C0
:10637800FFF7F8FDA36C01330DD1636A73B104F123
:106388002400FFF7A1FC48B1B8F1000F06D00120A6
:10639800C8F8000014E0A36C0133A36401200FE0E7
:1063A80000200DE00A48094940F2254204F066FB46
:1063B800C4E70848054940F2264204F05FFBC2E7FB
:1063C80087F31188BDE8F081BF960108C7960108D8
:1063D800029701085297010870B50D46044628B97E
:1063E8002148224940F2BF4204F048FB236C2BB1FC
:1063F8001F481E4940F2C34204F040FB23680BB912
:1064080063683BBB00F0ECFDEFF311864FF05F03D0
:1064180083F31188BFF36F8FBFF34F8FA26BE36BCA
:106428009A4215D2A36B0133A363A36C01330AD13B
:10643800636A5BB104F12400FFF746FC30B12DB16B
:10644800012028600DE0A36C0133A364012008E05B
:10645800002006E0074805494FF4996204F00EFB56
:10646800D0E786F3118870BDBF960108C79601086A
:10647800EF970108089801082DE9FF410E4601929F
:106488009846044628B95648564940F25B5204F0EB
:10649800F5FA1EB9236C002B40F09080FFF7AEFC94
:1064A80018B9019B002B40F09080002700F098FC61
:1064B800A36B63B320463146E568FFF788FDB8F162
:1064C800000F10D1A36B013BA363236813B9FFF737
:1064D8003DFD60602369B3B104F11000FFF7F4FBE0
:1064E800012810D107E0636AE56063B104F1240074
:1064F800FFF7EAFB38B13C4B4FF080521A60BFF30C
:106508004F8FBFF36F8F00F08DFC012064E0019D79
:1065180015B900F087FC4FE017B902A8FFF716FC81
:1065280000F080FCFFF7C6F800F05AFC636C0133FA
:1065380004BF00236364A36C013304BF0023A36476
:1065480000F070FC02A801A9FFF718FC78BB00F066
:1065580047FCA56B00F066FC1DBBE36C234A43F4C3
:1065680040731360236833B900F03AFC6068FFF7A2
:1065780055FC00F057FC04F124000199FFF72EFBAD
:106588002046FFF737FDFFF735F908B101278DE7FA
:10659800154B4FF080521A60BFF34F8FBFF36F8FC8
:1065A800F4E72046FFF726FDFFF724F9EEE720463B
:1065B800FFF720FDFFF71EF900200DE00C48094900
:1065C80040F25C5204F05AFA68E70A48054940F27A
:1065D8005F5204F053FA68E704B0BDE8F08100BFE9
:1065E800BF960108C796010804ED00E00C0000E022
:1065F8006398010899970108F8B50E4617460446AE
:1066080028B91D481D4940F2156204F037FA0EB941
:10661800236C3BBB00F0E4FCEFF311854FF05F0304
:1066280083F31188BFF36F8FBFF34F8FA06B00B355
:1066380020463146FFF7CBFCA36B013BA363636C99
:1066480001330AD123695BB104F11000FFF73CFB69
:1066580030B12FB1012038600BE0636C0133636403
:10666800012006E00648054940F2166204F006FAE1
:10667800D0E785F31188F8BDBF960108C7960108D1
:106688006398010810B5044628B9064806494FF42E
:10669800D46204F0F3F900F0A3FBA46B00F0C2FB92
:1066A800204610BDC0960108C796010830B50023E2
:1066B800064A52F8335002EBC3041DB942F83310AE
:1066C800606030BD01330A2BF2D130BD38B30020F1
:1066D80070B504460E46154600F082FB636C013324
:1066E80004BF00236364A36C013304BF0023A364C5
:1066F80000F098FBA36B2BB904F1240031462A461D
:10670800FFF7A6FA2046BDE87040FFF773BC00000B
:10671800F8B5134C00F064FB2568EDB9114F124E23
:106728003846FEF7B9FD3046FEF7B6FD0F4B1F6041
:106738000F4B14200C212A461E60FFF7CDFC206069
:1067480028B90C480C4940F21A3204F097F920682D
:1067580010B10A49FFF7AAFFBDE8F84000F062BB94
:10676800980A00206C0A0020800A0020680A00208D
:106778009C0A0020C7980108D3980108ED980108E1
:1067880010B5044691424160206105D8D21A836948
:106798009A420CD2074B04E09A4201D2994206D29F
:1067A800054B1868211DFEF791FD002010BD012042
:1067B80010BD00BF9C0A0020680A00201FB5FFF723
:1067C800A7FF0E4B1B683BB90D480E494FF4877263
:1067D80004F054F900200DE00123009300230193F5
:1067E80002930393084809494FF49672FEF720FE76
:1067F8000028E9D005B05DF804FB00BF980A002026
:1068080005950108D398010849690008F29801081C
:106818002DE9F041804617461E460D4689B12C20C9
:1068280000F0A4F9044698B1FFF772FF069BC4F87C
:106838000080A561E76126626362201DFEF737FDCF
:1068480006E0054805494FF49B7204F017F92C46F9
:106858002046BDE8F08100BFFA980108D3980108E6
:106868002DE9FF410D4690461F46064628B91348B4
:10687800134940F2411204F001F9124C2068C8B1E2
:10688800052D0195CDF8088003960EDCFFF7B6FAC2
:10689800022818BF0022206808BF0A9A01A90CBF65
:1068A80000231346FFF74CFC04E001A93A460023F5
:1068B800FFF734FD04B0BDE8F08100BF1699010868
:1068C800D3980108980A0020F7B5194D2B681A6863
:1068D8003AB3DB68DC681E68271D3846FEF70EFDF4
:1068E800636A20469847E369012BEED1A3693344D4
:1068F800B34206D96360246128683946FEF7E6FC8E
:10690800E3E700210091204632460B46FFF7A8FF37
:106918000028DAD1074808494FF43F7204F0AEF86E
:10692800D3E7064A11682960136003B0F0BD00BFC1
:10693800680A00201D990108D39801089C0A0020C4
:106948002DE9F04786B0DFF8ACA1DAF800301C6812
:10695800B4FA84F464091CB9DB68D3F8008001E058
:106968004FF000085C4DFEF7A5FEFEF7ABFE2B6866
:10697800984281462F4603D2FFF7A6FF012300E085
:106988000023C5F80090554E002B42D144BBC845A2
:106998002DD8FEF72FFFDAF80030DB68DD68281DF8
:1069A800FEF7ACFCEB69012B16D1A96928464144D6
:1069B8004A464346FFF7E4FE01280DD100942846D5
:1069C800214642462346FFF74BFF28B9444845492C
:1069D80040F2931204F052F86B6A284698471EE07A
:1069E800414B1B681C68B4FA84F2520900E0224645
:1069F8003068C9EB0801FFF76BFEFEF7FBFE70B9C4
:106A08003A4B4FF080521A60BFF34F8FBFF36F8F2E
:106A180005E0FEF7EFFE02E0039B002B08DA0022F8
:106A2800306803A91346FFF727FD0028F4D18AE749
:106A3800059C636913B1201DFEF760FCFEF742FE5A
:106A48003B689842054601D2FFF73EFF039A3D6036
:106A5800092AE4D80123934013F404782AD113F0C7
:106A6800C70F05D19B06DAD5204600F01DF9D6E7F9
:106A7800049BA169204619442A46FFF781FE012894
:106A8800CDD1636A20469847E369012BC7D1A26933
:106A9800049BCDF800801A44204641464346FFF740
:106AA800DFFE0028BBD10E480E494FF4287203F0D0
:106AB800E5FFB4E7049BA3612BB90D48094940F2EF
:106AC800B72203F0DBFFA169204629442A462B465A
:106AD800FFF756FEA3E700BF940A0020980A00209B
:106AE8001D990108D39801089C0A002004ED00E0D4
:106AF80025990108680A002010B5044628B90648F7
:106B080006494FF4537203F0B9FF00F069F9246A9B
:106B180000F088F9204610BD16990108D39801089D
:106B280010B5104B1A68824201D21346FAE7596829
:106B38005C18844201BF40680918184659604168CA
:106B48004418944209D1084C2468A2421FBF5268D5
:106B5800891841601A6818BF12680260834218BF1A
:106B6800186010BDA80A0020A40A00202DE9F843E7
:106B78000446FEF79FFD4249424D0B68FBB9424A65
:106B8800424E50071FBF0732414B22F007029B1AA3
:106B980008BF47F230531344083B23F00703002093
:106BA80070603260586018600B60981A1360394B37
:106BB80050601860384B18604FF000432B602B680A
:106BC8001C424BD1002C47D0083462071CBF24F06C
:106BD80007040834002C3FD02F4B1A68944298467B
:106BE8003CD82A4B1E687268A24203D30A689642B0
:106BF80006D133E03268002AF8D033461646F2E769
:106C080032681F681A6073681B1B102B07F108078E
:106C180011D906EB040919F0070F04D01F482049C1
:106C2800E82203F02BFF73681B1BC9F804304846A1
:106C38007460FFF775FF17497268D8F80030086864
:106C48009B1A8342C8F8003038BF0B602B681A4380
:106C580000237260336002E0274600E00027FEF759
:106C6800C9FD0FB902F08CF97B0705D00D480C4916
:106C78004FF4947203F002FF3846BDE8F88300BF72
:106C8800A40A0020E07F0020B00A0020A80A002003
:106C9800E07F0020E47F0020A00A00204A99010834
:106CA8008B990108B699010838B5044688B3194B81
:106CB80050F8042C196811421D4605D11648174989
:106CC8004FF49E7203F0DAFE54F8083C2BB11448D6
:106CD800124940F23D1203F0D1FE54F8043C2A68F0
:106CE8001A4216D054F8081C99B923EA020344F84A
:106CF800043CFEF7DFFC0B4A54F8041C1368A4F1AB
:106D080008000B441360FFF70BFFBDE83840FEF79F
:106D180071BD38BDE07F0020F39901088B99010807
:106D2800249A0108A00A0020014B1868704700BF88
:106D3800A00A002006480068006880F3088862B648
:106D480061B6BFF34F8FBFF36F8F00DF00BF000046
:106D580008ED00E0DFF80C00016841F47001016003
:106D68007047000088ED00E008B5094B1B68013347
:106D780005D00848084940F2071203F07FFE4FF09B
:106D88005F0383F31188BFF36F8FBFF34F8FFEE765
:106D980000000020449A01085E9A01084FF08073B1
:106DA80000E90A00054B40F80C3C6FF0020340F87C
:106DB800202C40F8243C4438704700BF716D00080F
:106DC800064B19680868B0E8F04F80F30988BFF3EC
:106DD8006F8F4FF0000080F311887047080A002079
:106DE8004FF05F0383F31188BFF36F8FBFF34F8FAB
:106DF800084A13680133012B13600AD1064B1B683C
:106E080013F0FF0F05D00548054940F29F1203F023
:106E180035BE70470000002004ED00E0A89A010884
:106E28005E9A010810B5084C23682BB90748084931
:106E38004FF4D37203F022FE2368013B23600BB9A1
:106E480083F3118810BD00BF00000020DD9A0108FF
:106E58005E9A0108EFF30980BFF36F8F144B1A682D
:106E68001EF0100F08BF20ED108A20E9F04F1060C7
:106E78004DF8043D4FF05F0080F31188BFF34F8F4A
:106E8800BFF36F8FFEF754FE4FF0000080F31188B8
:106E980008BC19680868B0E8F04F1EF0100F08BF6A
:106EA800B0EC108A80F30988BFF36F8F704700BF7A
:106EB800080A002008B5EFF311834FF05F0282F350
:106EC8001188BFF36F8FBFF34F8FFEF701FC18B126
:106ED800034B4FF080521A60002383F3118808BDDA
:106EE80004ED00E0034B044A1A60072243F8042C1F
:106EF800704700BF14E000E03F90020013B52C4B30
:106F08002C4A196891421C4605D12B482B4940F25E
:106F18003D1203F0B3FD2268294B9A4205D1294856
:106F280026494FF49F7203F0A9FD274B1A78D2B275
:106F38000192FF221A701B78244ADBB28DF80330C5
:106F48009DF8033003F05F031370214A0723136091
:106F58009DF80310090603F1FF3007D59DF80330AB
:106F68005B00DBB28DF803300346F1E71B0203F444
:106F7800E0631360019B144ADBB21370154B1A6867
:106F880042F47F021A601A6842F07F421A60FFF7E3
:106F9800A9FF114B00221A60FFF7DCFE0F4A1368A5
:106FA80043F040431360FFF7C5FEFFF7DDFE00BF67
:106FB80000ED00E071C20F41EF9A01085E9A0108E6
:106FC80070C20F41129B010800E400E0E87F002036
:106FD800EC7F002020ED00E00000002034EF00E00E
:106FE80008B5EFF305830F2B0BD90E4A9B5C0E4AAD
:106FF80012789A4205D90D480D494FF4387203F0BA
:107008003DFD0C4B0C4A1B68126803F4E063934285
:1070180007D90A4806494FF43C72BDE8084003F016
:107028002DBD08BDF0E300E0E87F0020359B010896
:107038005E9A01080CED00E0EC7F00205F9B0108E0
:1070480008B54FF48070012100F068FC4FF480709F
:107058000021BDE8084000F061BC0000436823F04F
:1070680040720B6822F4807213430A7943EA0223C0
:1070780043600B69CA681A438B6810B51A43846861
:10708800084B234013434A7943EA42038360C36AA7
:1070980023F470020B7D013BDBB242EA0353C36267
:1070A80010BD00BFFDF7FFC00023036003714371EB
:1070B8008360C360036101230375704710B5074CF3
:1070C800074B6268134090E8060011438268114339
:1070D800C2680A431343636010BD00BF0023014028
:1070E800E030FCFF0023036043608360C3607047A7
:1070F800836811B143F0010301E023F001038360C9
:107108007047092970B50CD9A1F10A04C66804EBC7
:1071180044040725A54026EA0505A3402B43C36080
:1071280009E0056901EB41060724B44025EA040497
:10713800B34023430361062A0BD8013A446B02EBA0
:1071480082021F23934024EA0303914019434163B9
:1071580070BD0C2A0BD8073A046B02EB82021F237E
:10716800934024EA030391401943016370BD0D3A2B
:10717800C46A02EB82021F23934024EA030391406E
:107188001943C16270BD836843F0804383607047D0
:10719800C06C80B270470368194214BF01200020F8
:1071A80070470000044B5A6809B1104301E022EA15
:1071B80000005860704700BF002004E0044BDA6804
:1071C80009B1104301E022EA0000D860704700BF0F
:1071D800002004E0036823F0010303600023036038
:1071E80043608360C360036121234361294B984254
:1071F80017D0294B98421BD0284B984220D0284BB7
:10720800984225D0274B98422AD0274B98422ED017
:10721800264B984232D0264B984236D0254B98427E
:1072280003D13D2243F8082C7047234B984204D1E0
:107238004FF4746243F8202C7047204B984204D1D5
:107248004FF4741243F8382C70471D4B984204D100
:107258004FF0746243F8502C70471A4B984203D190
:10726800194A43F8642C7047184B984203D1184ABE
:1072780043F87C2C7047174B984203D1164A43F8C1
:10728800942C7047154B984203D14FF03D5243F868
:10729800AC2C7047106002402860024040600240F9
:1072A800586002407060024088600240A06002405E
:1072B800B860024010640240286402404064024002
:1072C80058640240706402403D0000208864024017
:1072D800400F0020A064024000003D20B864024036
:1072E8000268134B10B51340CC680A6814434A6906
:1072F80014438A691443CA6914430A6A14434A6ADC
:1073080014438A6A14434A6B14438A6B2243134317
:10731800036043690C6B23F00702CB6A23431343D2
:1073280043610B6943604B6883608B68C36010BD21
:107338003F801CF0036811B143F0010301E023F022
:1073480001030360704741607047406880B270472E
:10735800006800F00100704710B50A4B0A4A0B4C50
:10736800A04294BF184610468B004CBF4368036880
:1073780021F0F02121F08211194214BF01200020D0
:1073880010BD00BF00600240006402400F6402406C
:1073980010B5084A084B094CA04294BF184610463D
:1073A80011F0005F21F0F02121F0821114BFC160BB
:1073B800816010BD00640240006002400F6402401A
:1073C8000B0611D543694AB143F080038029436114
:1073D80014D0036801F01E0119430EE023F0800366
:1073E8008029436104D17047802907D0002AF0D151
:1073F800036801F01E0123EA0101016070470000E3
:10740800104A114B10B5114CA04294BF1C461446AB
:1074180021F0F02323F0C3122AB1006800F01E0007
:1074280000EAD12202E0406900F0800289004CBFE6
:107438006068206823F08213184002D0101C18BF1F
:10744800012010BD00640240006002400F64024049
:1074580010B5084A084B094CA04294BF184610467C
:1074680011F0005F21F0F02121F0821114BFC160FA
:10747800816010BD00640240006002400F64024059
:10748800837910B50468002B31D01E4B196821EAA6
:1074980004021A605A68016822EA01025A600279F5
:1074A800016802F1804202F59E321468214311609E
:1074B8009A68016822EA01029A60DA68016822EA99
:1074C8000102DA6042790168102A0BBF9A6802F15A
:1074D8008043114303F59E3303BF9960D96802685E
:1074E8001A680BBF0A431143DA60196010BD0379AB
:1074F80003F1804303F59E331A6822EA04021A60F6
:1075080010BD00BF003C0140014B5861704700BFEF
:10751800003C0140034B5B69184214BF0120002066
:10752800704700BF003C0140014B5861704700BFE5
:10753800003C0140F0B5002201230C6893401C4038
:107548009C4229D1550003230668AB40DB431E400B
:1075580006600E790768AE403E4306600E79013E2C
:10756800012E11D886681E4086604E798768AE4025
:107578003E438660466826EA040444608C7946687F
:107588009440A4B234434460C4682340C360CB79B8
:10759800C468AB402343C3600132102ACCD1F0BD8C
:1075A8004FF6FF7303600023037143718371C37146
:1075B80070470369194214BF0120002070470183F6
:1075C8007047418370470AB1018370474183704710
:1075D80010B501F00703C90800EB81009B00046A9D
:1075E8000F21994024EA01010162016A9A4011437E
:1075F800016210BD08B5134B984207D14FF4001033
:10760800012100F07FF94FF4001014E00E4B98426E
:1076180007D14FF48000012100F074F94FF4800085
:1076280009E00A4B98420BD14FF40000012100F009
:1076380069F94FF400000021BDE8084000F062B984
:1076480008BD00BF0054004000580040005C0040E6
:107658007FB5868826F03F060446360468460D4600
:10766800360C00F0DBF8029A2C48B2FBF0F081B23D
:107678000E43A68023882A4E23F001031B041B0C0B
:1076880023802B68B3420AD85B000131B2FBF3F3C5
:107698009BB2032B89B298BF0423218423E0EE8890
:1076A8004BF6FF718E421BBF19214B4303EB43037B
:1076B800B2FBF3F315BF9BB2B2FBF3F343F4804381
:1076C8009BB2C3F30B020AB943F001034FF496715E
:1076D80001FB00F24FF47A7192FBF1F2013292B29F
:1076E80043F400432284A38323889BB243F001031D
:1076F800238023886989AA8823F4816323F00203FD
:107708001B040A431B0C13439BB223802A89AB89B1
:1077180013439BB2238104B070BD00BF40420F00E9
:10772800A086010012B141F0010101E001F0FE0163
:1077380089B201827047038819B19BB243F4806310
:1077480003E023F480631B041B0C03807047018251
:107758007047008AC0B27047838819B19BB243F45E
:10776800006303E023F400631B041B0C8380704751
:10777800838819B19BB243F4805303E023F4805308
:107788001B041B0C8380704783889BB20AB1194382
:1077980001E023EA01018180704782B00023009351
:1077A80001930B0F01900093009B21F07F4113B1CF
:1077B800019B143302E0019B090C18330193019BD0
:1077C8001B68194214BF0120002002B07047C9434A
:1077D80089B2818270470000014B1860704700BF72
:1077E80000300040014B5860704700BF0030004037
:1077F800014B9860704700BF00300040024B4AF6CA
:10780800AA221A60704700BF00300040024B4CF6B5
:10781800CC421A60704700BF0030004010B51D4AC6
:10782800936803F00C03042B03D0082B03D01A4BE6
:1078380018E01A4B16E05168536811F4800F03F0F2
:107848003F03516814BF154A134AB2FBF3F3114AB8
:107858005268C2F30142C1F3881101324B4352000E
:10786800B3FBF2F30B4A036093680D49C3F30313A8
:10787800CC5C0368E34043609468C4F382240C5DE5
:1078880023FA04F484609268C2F342328A5CD340DB
:10789800C36010BD003802400024F40000127A00D2
:1078A80004000020044B1A6B09B1104301E022EADE
:1078B80000001863704700BF00380240044B5A6B41
:1078C80009B1104301E022EA00005863704700BF85
:1078D80000380240044B1A6C09B1104301E022EA57
:1078E80000001864704700BF00380240044B5A6C0F
:1078F80009B1104301E022EA00005864704700BF54
:1079080000380240044B1A6A09B1104301E022EA28
:1079180000001862704700BF00380240044B5A6AE2
:1079280009B1104301E022EA00005862704700BF25
:10793800003802404209012A074B01D11B6803E0C5
:10794800022A0CBF1B6F5B6F00F01F0023FA00F0C8
:1079580000F00100704700BF00380240024A536F30
:1079680043F08073536770470038024008B5254BD1
:10797800984207D14FF480500121FFF7CFFF4FF411
:10798800805039E0204B984207D14FF480400121C4
:10799800FFF7B8FF4FF4804009E01C4B98420BD129
:1079A8004FF400400121FFF7ADFF4FF400400021E4
:1079B800BDE80840FFF7A6BF154B984207D14FF422
:1079C80000500121FFF7AAFF4FF4005014E0114BBB
:1079D800984207D14FF480100121FFF79FFF4FF421
:1079E800801009E00C4B98420BD14FF40010012194
:1079F800FFF794FF4FF400100021BDE80840FFF79F
:107A08008DBF08BD0030014000380040003C0040F8
:107A180000340140005001400054014003884A8866
:107A280010B503F441540B8813438A881343CA885A
:107A380013430A8913434A8913438A891343CA891A
:107A4800134323439BB20380838B23F400631B04FB
:107A58001B0C83830B8A038210BD038819B19BB268
:107A680043F0400303E023F040031B041B0C038096
:107A7800704783889BB20AB1194301E023EA0101E8
:107A88008180704730B5048C24F001042404240C50
:107A98000484048B058CA4B2ADB224F0F304224311
:107AA80025F00A0542EA031345F001059AB2294375
:107AB8000283018430BD30B5048C24F01004240402
:107AC800240C0484058B048C25F44075A4B22D0580
:107AD8002D0D24F0A00444F0100445EA022242EAE5
:107AE800033344EA01119BB28CB20383048430BD92
:107AF80008B5474B984205D101200146FFF70EFF14
:107B080001203DE0B0F1804F05D101200146FFF78B
:107B1800F9FE012076E03F4B984205D10220012171
:107B2800FFF7F0FE02206DE03B4B984205D10420A0
:107B38000121FFF7E7FE042064E0384B984205D1A5
:107B480008200121FFF7DEFE08205BE0344B984255
:107B580005D110200121FFF7D5FE102052E0314B4E
:107B6800984205D120200121FFF7CCFE202049E0D2
:107B78002D4B984209D102200121FFF7CFFE0220A8
:107B88000021BDE80840FFF7C9BE284B984207D13D
:107B98004FF480300121FFF7C1FE4FF48030EFE74A
:107BA800234B984207D14FF400300121FFF7B6FE6E
:107BB8004FF40030E4E71F4B984207D14FF4802080
:107BC8000121FFF7ABFE4FF48020D9E71A4B98420A
:107BD80005D140200121FFF795FE402012E0174B08
:107BE800984205D180200121FFF78CFE802009E012
:107BF800134B98420BD14FF480700121FFF782FE9E
:107C08004FF480700021BDE80840FFF77BBE08BD37
:107C1800000001400004004000080040000C004043
:107C280000100040001400400004014000400140E2
:107C3800004401400048014000180040001C00407A
:107C4800002000401C4A038890429BB212D002F5E3
:107C5800806290420ED0B0F1804F0BD0A2F58032F6
:107C6800904207D002F58062904203D002F580620C
:107C7800904203D14A8823F0700313430F4A90427D
:107C880008D002F5806290421FBF23F440730A892E
:107C98009BB2134303804B68C3620B880385064B72
:107CA800984203D003F58063984201D18B7A03860A
:107CB80001238382704700BF00000140001000408C
:107CC8004FF0FF33436000230380038143808372B6
:107CD8007047018582827047038819B19BB243F0CF
:107CE800010303E023F001031B041B0C038070470E
:107CF800038C23F001031B041B0C0384038C70B555
:107D08008488028B0E8822F073021204120C23F06E
:107D1800020516434B888A892D0413430F4A2D0CFC
:107D28002B439042A4B29BB203D002F580629042EA
:107D38000ED1CA894D8A23F0080313438A8823F099
:107D4800040313430A8A24F4407415432C43A4B251
:107D5800848006838A684263038470BD0000014002
:107D6800038C23F010031B041B0C0384038C30B515
:107D78008588028B0C8822F4E6421204120C42EA2F
:107D8800042223F0200394B21B048A891B0C43EAC3
:107D980002134A8843EA0213124A9042ADB29BB2D8
:107DA80003D002F58062904215D123F08003CA897E
:107DB8009BB243EA02124FF6BF7313408A8843EA24
:107DC80002130A8A25F4406545EA82054A8A45EA8B
:107DD80082059BB2ADB2858004838A68826303847E
:107DE80030BD00BF00000140038C23F480731B04E6
:107DF8001B0C0384038C30B58488828B0D8822F099
:107E080073021204120C23F4007315431B048A89AD
:107E18001B0C43EA02234A8843EA0223124A90428F
:107E2800A4B29BB203D002F58062904215D123F42C
:107E38000063CA899BB243EA02224FF6FF3313401C
:107E48008A8843EA02230A8A24F4405444EA021442
:107E58004A8A44EA02149BB2A4B2848085838A6861
:107E6800C263038430BD00BF00000140038C23F4CB
:107E780080531B041B0C0384038C30B58488828BCD
:107E88000D8822F4E6421204120C23F4005342EA4D
:107E980005221B048D891B0C43EA05334D8843EAF0
:107EA80005330B4DA842A4B292B29BB203D005F59C
:107EB8008065A84205D10D8A24F4804444EA8514DB
:107EC800A4B2848082838A680264038430BD00BFC0
:107ED800000001404163704781637047C163704788
:107EE80001647047038B23F008031B041B0C194320
:107EF80001837047038B23F400631B041B0C43EAC4
:107F0800012189B201837047838B23F008031B0486
:107F18001B0C194381837047838B23F400631B0474
:107F28001B0C43EA012189B2818370470023012297
:107F3800038043808280C38003817047406B704711
:107F4800806B7047006C7047038B23F00C031B0495
:107F58001B0C0383038B9BB2194301837047038B6C
:107F680023F440631B041B0C0383038B9BB243EA7B
:107F7800012189B201837047838B23F00C031B0412
:107F88001B0C8383838B9BB2194381837047838B3C
:107F980023F440631B041B0C8383838B9BB243EA4B
:107FA800012189B2818370472DE9F04188460D8807
:107FB800B8F804204988B8F80830044645B9FFF7EE
:107FC80061FD2046B8F80610BDE8F041FFF7BCBFD8
:107FD800042D08D1FFF76FFD2046B8F80610BDE85C
:107FE800F041FFF7BCBF082D058C1DD125F4807525
:107FF8002D042D0C0584858B068CADB225F0F30578
:10800800B6B245EA0315ADB226F420662A4346EA1D
:108018000125ADB245F4807582830584B8F8061051
:10802800BDE8F041FFF7A8BF25F480552D042D0CBD
:108038000584B0F81CE0068C2EF4407726F4005531
:108048003F056D043F0D6D0C47EA022745EA0135EF
:1080580047EA0333ADB245F480559BB28383058468
:10806800B8F80610BDE8F041FFF791BFB0F844300A
:1080780029B16FEA43436FEA53439BB201E0C3F36C
:108088000E03A0F84430704783899BB20AB11943A4
:1080980001E023EA010181817047038A194214BF74
:1080A800012000207047038A828911EA030092B2F6
:1080B80003D0114214BF012000207047C94389B280
:1080C8000182704783899BB20AB1194301E023EA10
:1080D80001018181704700007FB5038ACA889BB27D
:1080E80023F440531343038283890E469BB223F43F
:1080F800B053098923F00C02B3880B4371890B43F1
:108108009BB213438381838AB2899BB223F4407361
:108118001343838204466846FFF780FB1A4B9C4250
:1081280003D003F580639C4201D1039D00E0029DCA
:10813800A38931681BB2002B4FF0190202FB05F22C
:10814800B4BF4D008D00B2FBF5F5A2896426B5FBDE
:10815800F6F00001010912B2002A06FB1153ADBF67
:108168001A01D90032313232B5BFB1FBF6F2B2FB97
:10817800F6F302F0070203F00F03B4BF10431843ED
:1081880080B2208104B070BD00100140838919B10C
:108198009BB243F4005303E023F400531B041B0C6D
:1081A80083817047C1F30801818070478088C0F3DC
:1081B80008007047838A9BB20AB1194301E023EA99
:1081C80001018182704710B5C1F34214012301F007
:1081D8001F01012C03FA01F301D10C3003E0022C3A
:1081E8000CBF1030143012B10268134302E0026869
:1081F80022EA0303036010BDC94389B201807047B6
:10820800012310B5C1F3421401F01F029C4203FA86
:1082180002F201D1838903E0022C0CBF038A838A0E
:108228009BB21340028892B23BB1090A01238B40EA
:10823800134214BF0120002010BD184610BD0000D5
:1082480040F0BF60024B40F40030D860704700BF78
:1082580000ED00E0C278037810B512B3164AD16871
:108268004278C943C1F30221C1F10404E4B2A24037
:10827800D4B20F220A4181780A40224303F16043B5
:1082880003F561431201D2B283F800230378012277
:10829800590903F01F0302FA03F3084A42F8213090
:1082A80010BD5A09012103F01F03994002F1200370
:1082B800024A42F8231010BD00ED00E000E100E0A2
:1082C80010B501F0030301F0FC0101F1804101F553
:1082D8009C319B008C680F229A4024EA02028A6033
:1082E8008A68984002438A6010BD08B504F0F0FB24
:1082F80000F07AFEFDF798F904F014FC0020012143
:1083080004F00AFC0120014604F006FCFEE7000028
:108318002DE9F0411E4E3578C5BB1E4C01214FF4A6
:108328008040FFF7CBFA01270623A57020460D25CC
:108338002370E7706570FFF78DFF072320462370D1
:108348006570FFF787FF0823204623706570FFF7E5
:1083580081FF0923204623704FF00A086570FFF754
:1083680079FF05232046637084F80080FFF772FFC9
:108378001723204623706570FFF76CFF28232046DB
:1083880084F801802370FFF765FF3770BDE8F0813E
:10839800F47F0020F07F0020704708B50120FFF728
:1083A800C3F8FFF7F9FF08BD704708B50220FFF7CB
:1083B800BBF8FFF7F9FF08BD704708B50420FFF7C1
:1083C800B3F8FFF7F9FF08BD704708B50820FFF7B5
:1083D800ABF8FFF7F9FF08BD08B51020FFF7A4F8C0
:1083E80006F0EEFB08BD704770477047704770474E
:1083F80008B52020FFF78EF8012804D12020FFF7C8
:1084080093F8FFF7F0FF4020FFF784F8012804D124
:108418004020FFF789F8FFF7E7FF8020FFF77AF899
:10842800012804D18020FFF77FF8FFF7DEFF4FF423
:108438008070FFF76FF8012805D14FF48070FFF7BF
:1084480073F8FFF7D3FF4FF40070FFF763F80128C4
:1084580005D14FF40070FFF767F8FFF7C8FF08BDB4
:10846800704770477047704708B54FF48060FFF752
:1084780051F8012805D14FF48060FFF755F8FFF750
:10848800EFFF4FF40060FFF745F8012805D14FF4DE
:108498000060FFF749F80DF00FF94FF48050FFF72F
:1084A80039F8012805D14FF48050FFF73DF8FFF760
:1084B800D8FF4FF40050FFF72DF8012805D14FF4ED
:1084C8000050FFF731F808F027FB4FF48040FFF722
:1084D80021F8012805D14FF48040FFF725F8FFF770
:1084E800C1FF4FF40040FFF715F8012805D14FF4FC
:1084F8000040FFF719F8FFF7B6FF08BD4FF44070CA
:10850800FFF79EBEFEF7D6BC70471EF0040F0CBFE7
:10851800EFF30880EFF3098000F002B8704700001D
:108528002DE9F84FD0F800B0D0F804A0D0F80890A2
:10853800D0F80C80076946698569C46934493548AB
:1085480002F006FC344933485A4602F001FC33492C
:108558003048524602F0FCFB31492E484A4602F0A8
:10856800F7FB30492B48424602F0F2FB2E492948D6
:108578003A4602F0EDFB2D492648324602F0E8FB68
:108588002B4924482A4602F0E3FB2A49214822467F
:1085980002F0DEFB284B29491A681E4802F0D8FB76
:1085A800274B28491A681B4802F0D2FB264B27495B
:1085B8001A68184802F0CCFB254B26491A6815485A
:1085C80002F0C6FB244B25491A68124802F0C0FB8A
:1085D8000020014600F058F90120002100F054F96C
:1085E8000220002100F050F90320002100F04CF98E
:1085F80004F0C4FA0220012104F08EFA04200121BB
:1086080004F08AFA1648932102F070FAFEE700BFD8
:10861800A19B0108E9EC0008B79B0108C09B010871
:10862800C99B0108D29B0108DB9B0108E59B010857
:10863800EE9B0108F79B010838ED00E0019C01085A
:1086480028ED00E00C9C01082CED00E0179C0108C7
:1086580030ED00E0229C01083CED00E02D9C010873
:10866800389C0108002008B5014600F00DF90120EA
:10867800002100F009F90220002100F005F903208B
:10868800002100F001F904F079FA0220012104F038
:1086980043FA0420012104F03FFA0248A62102F01F
:1086A80025FAFEE7389C0108002008B5014600F0CD
:1086B800EBF80120002100F0E7F80220002100F08B
:1086C800E3F80320002100F0DFF804F057FA022055
:1086D800012104F021FA0420012104F01DFA0248C6
:1086E800BA2102F003FAFEE7389C0108002008B519
:1086F800014600F0C9F80120002100F0C5F8022069
:10870800002100F0C1F80320002100F0BDF804F0BA
:1087180035FA0220012104F0FFF90420012104F0B8
:10872800FBF90248CE2102F0E1F9FEE7389C010886
:10873800704705F003B9000037B500240E4D6846B0
:10874800FEF72EFF2B681A59D26800921B5969460A
:108758009868FEF7EFFE2B681B5900229868198A63
:10876800FEF736FF2B681B590434186AFFF7C0F967
:10877800102CE3D103B030BD88B300202DE9F041BF
:108788003F4F404D3B788AB0044613B12868FFF745
:10879800D3FF2C6000242B681B5901215868FFF770
:1087A80081F82B681B590121D869FFF793F86846AF
:1087B800FEF7F6FE02238DF804308DF805302B689D
:1087C8001A5952698DF806201A59D26800921B5915
:1087D80069469868FEF7AEFE2B681B599868198A97
:1087E8001A7EFEF7F5FE2B681A59D26A03921A59B7
:1087F8000026128EADF80820ADF81060ADF80A60BA
:108808008DF812601B5902A9186AFFF71BFA60233A
:10881800ADF814304FF001082B68ADF816800796B4
:108828001A59928CADF820204FF48072ADF82420AC
:108838001B5905A9DA6B186A90472B681B59082140
:108848001A6C186A90472B681B594146986AFEF7BC
:10885800B5FC2B681B594146186A0434FFF706FC1F
:10886800102C98D12B689B590121186A0436FFF700
:1088780033FA102EF6D101233B700AB0BDE8F0811F
:108888000880002088B3002070B52DED028B324B94
:108898001B7882B005460C46002B58D0032804D913
:1088A8002E482F49D82202F0E9F82E4B1A6852F8C0
:1088B800252012781E466ABB07EE904A9FED2A7A59
:1088C8009FED2A0AFBEEC87A67EE877A9FED287A31
:1088D80027EE800A27EE877AA7EE270AB0EE408AAD
:1088E80006F002FE88EE000A224BF7EE007AB4EE9C
:1088F800670AF1EE10FAC8BFB0EE670ADFED1E7A1C
:1089080020EE270ABCEEC00A8DED010ABDF804402E
:1089180043F82540336853F825301A78012A01BFF7
:1089280045F208214C434FF6FF71B4FBF1F104BF47
:1089380001F5A44108315A6B0BBF186A186A89B24D
:10894800210A02B0BDEC028BBDE87040104702B0AE
:10895800BDEC028B70BD00BF088000202C9D010873
:108968003F9D010888B30020000070425839B43D8B
:10897800388D23BAF87F002000FF7F4703282DE9B0
:10898800FF410446884617461E4605DD1848194922
:108998004FF4897202F072F801A8FFF791F9164DA9
:1089A800B8F1000F08D00423144A92FBF7F292B2F0
:1089B800ADF80430029209E02B6853F82420D26AFB
:1089C800029253F824301B8EADF804302B6853F80C
:1089D800243001A9186AFFF735F92B6853F82430B9
:1089E80031465A6B186A904704B0BDE8F08100BF61
:1089F8002C9D01083F9D010888B300200059000103
:108A080070B50024114B1B6853F824301D78BDB98C
:108A18000F4B53F824600F4B012133F814203046D4
:108A280040F27573FFF7AAFF3220FCF7B9FF304612
:108A380029462A462B46FFF7A1FF9620FCF7B0FFF0
:108A48000134042CDED1044B187870BD88B30020A3
:108A5800949C0108C49D0108088000207320704779
:108A680000B589B0154B164A1B68934222D09B6803
:108A78006846984702460028F4D19DF8013011490C
:108A88001B0951F8230020B169460223FDF758FB62
:108A980003E00D4A1368013313609DF801300B4A57
:108AA8001B0952F823100029DCD052F823306846FD
:108AB8009847D7E70A20FCF773FFD3E74800002060
:108AC800340000200C8000204C80002058800020BA
:108AD80010B588B00E4B0F4A196891421C4613D046
:108AE8000D4B694618684FF0FF320023FDF7C4FCB0
:108AF8000128EFD1236868465B6898470028E9D1C8
:108B08000A20FCF74DFFF5E70A20FCF749FFE1E7EB
:108B18004800002034000020508000207FB5114D0F
:108B28002C78ECB9202122463C20FDF7D5FA0E4BD3
:108B38000E49186002269622234600960194029454
:108B480003940B48FCF774FC2346009601940294A6
:108B58000394084808499622FCF76AFC01232B7005
:108B680004B070BD5480002050800020DC9E0108B5
:108B7800D98A0008698A0008E49E0108014B187820
:108B8800704700BF5480002038B5094B53F82020A7
:108B980005461C4622B1074807495C2201F06EFFD2
:108BA800012020210022FDF797FA44F8250038BD5E
:108BB8000C800020EC9E0108039F010870B50E4B45
:108BC80053F8202006460D461C4622B90B480C498E
:108BD8006C2201F053FF25B90A4809496D2201F0BA
:108BE8004DFF54F8260029464FF0FF320023BDE818
:108BF8007040FDF741BC00BF0C8000201A9F01089F
:108C0800039F01086DA7010808B5034B1868FDF715
:108C180039FDC0F13C0008BD508000201028DCBFA1
:108C2800014B43F8201070475880002010B50446C7
:108C380020B90B480B49C32201F020FF23781E2BD3
:108C480004D909480749C42201F018FF074B00223C
:108C5800186821461346BDE81040FDF771BA00BFF9
:108C68006DA70108039F0108299F01085080002073
:108C780008B5064B00211868FDF7EEF9044B1B6890
:108C88001B6903B19847002008BD00BF5080002031
:108C980048000020034B1B68DB6803B1184701201C
:108CA800704700BF4800002070B5094C236805468E
:108CB80013B11B68002098470DB1256001E0054BF2
:108CC8002360236801201B68BDE87040184700BF77
:108CD800480000203400002038B50C4C4FF0FF331A
:108CE8000021054644F8203003F016FF084A2823DF
:108CF80003FB0522002352F82310013102D044F867
:108D0800253038BD01330A2BF5D138BD64810020E8
:108D1800988000202DE9F74F8046FDF7EDFE2C4B9B
:108D28001B78002B50D0C5B22A4B53F82530581C5D
:108D38004AD00A2606FB0536DFF8A490264A59F8D9
:108D4800264052F823B0254F0021631C0BEBC40AC0
:108D580049F8263038680B464FF0FF32FDF78CFB98
:108D6800DAF80430991C08D05A1C0AD1284649F868
:108D780026300024FFF7B0FF1EE0002449F8264003
:108D88001AE01BF83410284603F0C6FEDAF804206F
:108D9800002482B12346042100944046FDF760FD7B
:108DA800FCF790FC00940246234640460121FDF75B
:108DB80057FD012400E01446002138680A460B4696
:108DC800FDF7BEF9002CAFD003B0BDE8F08F00BFAF
:108DD8006081002064810020489F01088C81002068
:108DE8009880002037B51E4B1C781D46ACBB03F09D
:108DF80099FE23461B4A4FF0FF3142F823101A49C7
:108E0800282202FB031100224FF0FF3041F8220014
:108E180001320A2AF8D10133052BEBD10024134B78
:108E28000093134823464FF47A710022FDF7F0FCB3
:108E3800104B43F824000134052CF0D10322012003
:108E48000021FDF749F90C4A106020B100210A46BB
:108E58000B46FDF775F901232B7003B030BD00BF39
:108E68006181002064810020988000201D8D000809
:108E780040A00108788100208C81002010B5044BA7
:108E88001C7803F085FE034B01221A70204010BDA8
:108E98006181002060810020F8B505460024174B49
:108EA80053F824308B4223D1154F00210B464FF045
:108EB800FF323868FDF7E0FA0A2303FB0543114A3D
:108EC8000026284642F82360FFF706FF3346386835
:108ED80031463246FDF734F90B4B53F82530A3429F
:108EE8000AD10A4B53F82500BDE8F840FFF712BF36
:108EF80001340A2CD3D1F8BDF8BD00BF489F010842
:108F08008C810020988000206481002078810020D6
:108F18004160C2607047000070B505460024144BDC
:108F280053F824308B421FD1124E00210B46306873
:108F38004FF0FF32FDF7A0FA0A2303FB05440E4B5E
:108F48004FF0FF32284643F82420FFF7C5FE0021E2
:108F580030680B460A46FDF7F3F8084B53F825002E
:108F6800BDE87040FFF7D6BE01340A2CD7D170BDDA
:108F7800489F01088C81002098800020788100207B
:108F880008B54FF05F0383F31188BFF36F8FBFF30A
:108F98004F8F0649064801F0DBFE0220012103F04D
:108FA800BBFD0420012103F0B7FDFEE78CA00108FA
:108FB800BD9300087047012070470000024B1B68F2
:108FC8000BB11B681847704790810020024B1B6843
:108FD8000BB15B681847704790810020014B1860FF
:108FE800704700BF908100201FB502230093002323
:108FF800019302930393044904484FF49672FCF7D3
:1090080017FA05B05DF804FB9DA00108419100081E
:1090180073B5284C2578002D4AD10120FDF758F961
:10902800254B264E18604FF0FF322B462946FDF798
:1090380023FA06F065F809F007FAFFF76FFD00F06C
:1090480077F91F491F4801F083FE1F491D4801F0A9
:109058007FFE1E491E4B0D681E4836781E491A6849
:109068001E4B002E18BF01461B681648019100953B
:109078001B4901F06DFE1B4B1B491B6800931B4BE2
:109088001048B3F900300193194B1A68043B1B6868
:1090980001F05EFE0CF02AFF01F076F809F06EFE92
:1090A800FFF7A0FE06F0F4F9FFF784FF0123237011
:1090B80002B070BD958100208CB30020D8A80108AB
:1090C800B3A00108BD930008D6A001087C030020C6
:1090D80080030020A4A00108ADA0010878030020A7
:1090E800FDA00108107AFF1F17A10108227AFF1FAF
:1090F800187AFF1F38B5084B1C78FFF7BFFE0546E6
:1091080006F0ECF92840044001F04AF80440FFF763
:1091180052FF204038BD00BF9581002008B5054B9F
:10912800002118680A460B46FDF70AF8BDE8084012
:1091380005F01EBE8CB3002038B503F0F3FC002008
:10914800012103F0E9FC37493748384D01F000FEAA
:10915800FFF75EFF00F0A8F801F056F801F0E2FB17
:1091680009F0CCFA09F024F809F0A0FAFFF7C2FFD9
:1091780004460CF069FF2040C4B200F0B1F8044086
:1091880001F0AEF8044001F0F3FB044009F0D4FA12
:10919800044009F037F8044009F0AAFA044005F041
:1091A800D1FD84B178B101242C70FFF7B7FF0620F8
:1091B80009F02EF820461E49FFF76EFE04201D49CF
:1091C800FFF76AFE1CE000232B70FFF793FF88B1BE
:1091D80004201749FFF760FE4FF4FA60FCF7E0FB44
:1091E8002B78002BF4D014490F4801F0B1FDFFF79C
:1091F80095FF05E003F096FC0420012103F08CFCA8
:10920800FDF792FD0D490246074801F0A1FD0C4902
:10921800054801F09DFD00F0CBFF4FF0FF30FCF753
:10922800BFFBFAE745A10108BD930008948100201F
:10923800C89F010874A0010861A1010875A101086F
:109248009EA1010810B50B4B1B781BB90220FCF737
:10925800A7FBF8E7084C00210B4620684FF0FF32C7
:10926800FDF70AF9002120680A460B46BDE81040C0
:10927800FCF766BF958100208CB30020014B187065
:10928800704700BF9681002008B5FCF71BFA054A15
:109298001368C31A502B02D91060FEF7AFFA30BF1B
:1092A80008BD00BF9881002010B50C4C23789BB9ED
:1092B80005F0A4FA06F0B0FB06F02CFCFFF7F4FC6E
:1092C80000F0E2F808F094FE00F03CFE00F00EF921
:1092D80001F0AEFA0123237010BD00BF9C8100206D
:1092E80038B50B4B1C7806F05FFB0546FFF746FCCC
:1092F8002840044000F0D8F8044008F089FE0440F3
:1093080000F034F8044000F073F9204038BD00BF85
:109318009C81002010B5054C2046FFF787FC0128EA
:109328004FF000030CBF2370184610BD90B3002007
:1093380038B50B4B1C781D468CB90A4B032201200B
:1093480021461C705C70FCF7C7FE074A106020B10C
:10935800214622462346FCF7F3FE01232B7038BD35
:10936800A481002090B30020A0810020014B187830
:10937800704700BFA481002037B50C4C054600217A
:10938800206801AAFDF738F901280CD1084A20689D
:1093980013781D2B9EBFD11801338D7001A998BF7A
:1093A8001370FDF719F8284603B030BDA0810020DE
:1093B80090B3002070B5214B5968214B1B780646A5
:1093C800002B39D0C1F3080119B1BDE87040FFF78F
:1093D800D3BF1C4D4FF0FF3228680B46FDF74CF801
:1093E800012827D1184C23781D2B04D9FFF70CFC32
:1093F800012817D109E0E2180133DBB20A2E967072
:109408002370F3D01E2BF1D00EE0207800231A1819
:10941800002A07DD0D491944224409799170013B5E
:109428005A1DF4D1FFF776FF002128680A460B463B
:10943800FCF786FEF0B270BD184670BD00ED00E086
:10944800A4810020A081002090B30020F6A101088B
:1094580038B5437813F0030305460FD0012B00D02D
:1094680038BD04461E2204F8022B002120460FF0C6
:10947800E2FE204603490FF0E6FE2846BDE83840E4
:10948800FFF7D4BBFBA1010810B5054C23782BB915
:109498000F200449FFF7C2FB0123237010BD00BF52
:1094A800A581002059940008014B1878704700BF27
:1094B800A581002030B50B4B1C680B4B00221D68A2
:1094C8001346A34209DA0C2159436956002902DBE5
:1094D800824205D001320133F3E74FF0FF3030BD4F
:1094E800184630BDD8810020D08100202DE9FF47E3
:1094F800304B1C789846002C59D12F4A2F4E304BB0
:1095080032609B1A2F4A3049304F9B1053430B60EF
:109518003C608946D9F80050AC422CDA2C4B3868AC
:109528003268C3F802000C2565435119525D9A71DF
:109538004868C8B10FF08FFE182804D92548264975
:10954800622201F09BFA33681D44D5F804A0504606
:109558000FF081FE5146024620480FF061FE686810
:109568000FF079FE411D00E005211D4801F0FEFBCA
:1095780001343860CEE71B4B346819680022AA42D0
:1095880007DA0C205043013220560028A8BF0131C9
:10959800F5E71960012400230094019302930393D3
:1095A800114812499622FBF743FF88F8004004B09F
:1095B800BDE8F087D481002004D00108D0810020C4
:1095C80048D70108ABAAAAAAD8810020C8810020E0
:1095D800A68100200EA2010830A20108AD8100205A
:1095E800A8810020CC8100201D97000848A201080E
:1095F800014B1878704700BFD48100202DE9F8434B
:1096080018B101281ED0BDE8F883394B394F3A4CC0
:109618001D683B6894F803E0384E04330246AA42BA
:109628005ADA13F8041C11F0800F03D0C90705D5C6
:109638001E6804E0704513D0013000E02F4E01325F
:109648000C33ECE72C4B20225A7006221A702C4A55
:1096580098701268DA702B4A10685860184642E011
:10966800202363704FF00C08002308FB02F8A37056
:109678003B68E07003EB0809304613F808302371A3
:109688000FF0E9FD0546D9F804000FF0E4FD284481
:109698000530C0B21E28207004D91B481B49D622A9
:1096A80001F0ECF930460FF0D6FD3146421C18485F
:1096B8000FF0B6FD30460FF0CEFD3B6898440546E6
:1096C800D8F8046030460FF0C6FD2C44421C3146E1
:1096D800A01D0FF0A5FD05E0202363700023A370F3
:1096E800012323700448BDE8F843FFF79FBA00BF81
:1096F800D8810020D0810020A68100207EC80108E2
:10970800CC810020C88100204EA2010830A20108A7
:10971800AB8100202DE9F04F022085B0FFF734FA25
:10972800844C02202146FFF749FA6678A57816F09E
:109738000306274603D12846FFF760FFF0E7012E0E
:1097480030D12846FFF7B6FE002805DAFF23A370BC
:109758000223E570237130E00C235843764B1B68D5
:109768001A5C191802F00302022A8B680CD0032A2B
:109778000FD0012A15BF1B781B88E370A4F80330AB
:1097880014BF022303230BE01B68C4F8033005232E
:1097980006E01A68C4F803205A68C4F807200923A9
:1097A8002370B3E0022E2DD12846FFF783FE002850
:1097B80007DAFF23A370E570267103232370204680
:1097C800A5E00C2358435C4B1B681A181B5C590610
:1097D800A6D403F00303022B926809D0032B0BD005
:1097E800012B15BFE378B4F80330137013808DE0B4
:1097F800D4F80330136089E054F8031F636882E8E3
:109808000A0083E0002D8BD12B46FA18927802B912
:10981800013501331E2BF8D1012D40F388804748CC
:109828000FF019FD07EB000808F1040881464046CF
:109838000FF011FD00EB09030193FB18DFF8049109
:109848005E793F4B1B6802933B4BD3F800B04FF057
:10985800000A5D46029B9A451FDA29780A0604D554
:10986800CB0714D5D5F8049013E068684146FBF798
:1098780009FD70B9DFF8BCC0CDF80CC00CF10301CC
:109888004846FBF7FFFCDDF80CC010B907E0DFF82D
:10989800B4900AF1010A0C35DCE7022522E00C211C
:1098A80001FB0AF20BEB02011BF802309E423CD18D
:1098B80006F0400303F0FF05002B34D1019B8968B3
:1098C80003F1040906F003060CEB0903022E03F169
:1098D80002021FD0032E21D0012E15BF9B785B8872
:1098E8000B700B8015480FF0B6FC064640460FF08B
:1098F800B2FC37443844457110480FF0ACFC0546BB
:1099080040460FF0A8FC2844043020700948FFF7AF
:109918008DF905E7D3F802300B60E3E7D2E90023BD
:10992800C1E90023DEE70D25DCE71625DAE705B0F7
:10993800BDE8F08FA6810020D0810020A9810020F9
:10994800D88100207EC801082DE9F34100260C23A8
:10995800184D73435A59824204D00136102EF6D15D
:10996800022024E02B449C6824B123680022A260D2
:109978001C46F9E70C2707FB0657786888B14FF0B3
:10998800FF38032122462346CDF80080FCF768FF04
:10999800CDF800807868052122462346FCF760FF51
:1099A8007C600C235E434FF0FF33AB51002002B0C4
:1099B800BDE8F081FC87002013B500210C220C4C77
:1099C80002FB01F31A59824204D001311029F5D162
:1099D80002200AE023444FF0FF3200920022586828
:1099E80003211346FCF73CFF002002B010BD00BF66
:1099F800FC87002038B5124B124D1B780BB9002399
:109A08000DE000242859431C05D0FFF7D5FF0D4B66
:109A1800E058FFF799FF0C34C02CF3D1EFE74FF073
:109A2800FF32EA500C33C02BF9D10023064A1A44FE
:109A38000C330021B3F5C06F9160F7D138BD00BF7A
:109A4800C4880020FC870020DC81002008B5FDF7D1
:109A580053F8BDE808400146014800F0BFBB00BF0D
:109A6800019E00082DE9F74F019100210C23414A7E
:109A78004B439C58844204D001311029F6D102206E
:109A880075E01A443C4B1B6800933C4BD3F80080AC
:109A98000021019B994224DA976800253B46384CFF
:109AA8002BB118791B680009205C0544F7E7354895
:109AB80010F811C00CF00F0E4E0014F80E402C4494
:109AC8001A2C00EB060A81460DDCDFF8BCE00C25F9
